:020000020000FC
:040000000C944A0012
:1000680048456C6C4F2054484953204953004D591A
:10007800204C43442050524F4752414D00004F639B
:10008800742030322C203230313800000FEF0DBF91
:1000980008E00EBF529A539A549A559A239A249A72
:1000A8000E946100F0E0E4E300E00E949D00F0E0BF
:1000B800EBE300E40E949D00FFCF04E60E94DB0012
:1000C8002C982B9800E30E94C3000AE00E94DB00F2
:1000D80000E30E94C30008EC0E94E90000E30E94CC
:1000E800C30008EC0E94E90008E20E94C30000E592
:1000F8000E94E90008E20E94BB0000E50E94E900B6
:1001080008E00E94BB0000E50E94E90001E00E94AF
:10011800BB0004E00E94DB0006E00E94BB0000E593
:100128000E94E9000CE00E94BB0000E50E94E90083
:100138000895FF93EF93EE0FFF1F00680E94BB0026
:1001480000E50E94E9000591003031F00E94B300FB
:1001580000E50E94E900F7CFEF91FF9108952C9AEE
:100168002B980E94C30002950E94C30008952C9802
:100178002B980E94C30002950E94C30008955A9AC2
:1001880007FF5A985B9A06FF5B985C9A05FF5C9894
:100198005D9A04FF5D982B9A0E94EE002B980E94AE
:1001A800EE0008950E94E0002197E1F708950E946B
:1001B800E0000A95E1F70895CF93DF93CBE9DFE0FC
:1001C8002197F1F7DF91CF9108950E94EE000A95EB
:0E01D800E1F708950F930F910F930F91089583
:00000001FF
